{
  "contractName": "CarbonCreditSystem",
  "abi": [
    {
      "inputs": [
        {
          "internalType": "address",
          "name": "_token",
          "type": "address"
        },
        {
          "internalType": "address",
          "name": "_nft",
          "type": "address"
        }
      ],
      "stateMutability": "nonpayable",
      "type": "constructor"
    },
    {
      "anonymous": false,
      "inputs": [
        {
          "indexed": true,
          "internalType": "address",
          "name": "buyer",
          "type": "address"
        },
        {
          "indexed": false,
          "internalType": "uint256",
          "name": "amount",
          "type": "uint256"
        }
      ],
      "name": "CreditsTransferred",
      "type": "event"
    },
    {
      "anonymous": false,
      "inputs": [
        {
          "indexed": true,
          "internalType": "address",
          "name": "previousOwner",
          "type": "address"
        },
        {
          "indexed": true,
          "internalType": "address",
          "name": "newOwner",
          "type": "address"
        }
      ],
      "name": "OwnershipTransferred",
      "type": "event"
    },
    {
      "anonymous": false,
      "inputs": [
        {
          "indexed": true,
          "internalType": "uint256",
          "name": "projectId",
          "type": "uint256"
        },
        {
          "indexed": true,
          "internalType": "address",
          "name": "ngo",
          "type": "address"
        },
        {
          "indexed": false,
          "internalType": "uint256",
          "name": "credits",
          "type": "uint256"
        },
        {
          "indexed": false,
          "internalType": "uint256",
          "name": "nftTokenId",
          "type": "uint256"
        }
      ],
      "name": "ProjectCreatedAndMinted",
      "type": "event"
    },
    {
      "inputs": [],
      "name": "carbonToken",
      "outputs": [
        {
          "internalType": "contract CarbonCreditToken",
          "name": "",
          "type": "address"
        }
      ],
      "stateMutability": "view",
      "type": "function",
      "constant": true
    },
    {
      "inputs": [],
      "name": "creditPrice",
      "outputs": [
        {
          "internalType": "uint256",
          "name": "",
          "type": "uint256"
        }
      ],
      "stateMutability": "view",
      "type": "function",
      "constant": true
    },
    {
      "inputs": [
        {
          "internalType": "address",
          "name": "",
          "type": "address"
        },
        {
          "internalType": "uint256",
          "name": "",
          "type": "uint256"
        }
      ],
      "name": "ngoProjects",
      "outputs": [
        {
          "internalType": "uint256",
          "name": "",
          "type": "uint256"
        }
      ],
      "stateMutability": "view",
      "type": "function",
      "constant": true
    },
    {
      "inputs": [],
      "name": "owner",
      "outputs": [
        {
          "internalType": "address",
          "name": "",
          "type": "address"
        }
      ],
      "stateMutability": "view",
      "type": "function",
      "constant": true
    },
    {
      "inputs": [],
      "name": "projectNFT",
      "outputs": [
        {
          "internalType": "contract CarbonProjectNFT",
          "name": "",
          "type": "address"
        }
      ],
      "stateMutability": "view",
      "type": "function",
      "constant": true
    },
    {
      "inputs": [
        {
          "internalType": "uint256",
          "name": "",
          "type": "uint256"
        }
      ],
      "name": "projects",
      "outputs": [
        {
          "internalType": "uint256",
          "name": "projectId",
          "type": "uint256"
        },
        {
          "internalType": "string",
          "name": "projectName",
          "type": "string"
        },
        {
          "internalType": "address",
          "name": "ngoDeveloper",
          "type": "address"
        },
        {
          "internalType": "uint256",
          "name": "carbonAmount",
          "type": "uint256"
        },
        {
          "internalType": "uint256",
          "name": "creditsIssued",
          "type": "uint256"
        },
        {
          "internalType": "string",
          "name": "ipfsHash",
          "type": "string"
        },
        {
          "internalType": "uint256",
          "name": "mintedAt",
          "type": "uint256"
        },
        {
          "internalType": "uint256",
          "name": "nftTokenId",
          "type": "uint256"
        }
      ],
      "stateMutability": "view",
      "type": "function",
      "constant": true
    },
    {
      "inputs": [],
      "name": "renounceOwnership",
      "outputs": [],
      "stateMutability": "nonpayable",
      "type": "function"
    },
    {
      "inputs": [
        {
          "internalType": "address",
          "name": "newOwner",
          "type": "address"
        }
      ],
      "name": "transferOwnership",
      "outputs": [],
      "stateMutability": "nonpayable",
      "type": "function"
    },
    {
      "inputs": [
        {
          "internalType": "uint256",
          "name": "_projectId",
          "type": "uint256"
        },
        {
          "internalType": "string",
          "name": "_projectName",
          "type": "string"
        },
        {
          "internalType": "address",
          "name": "_ngoDeveloper",
          "type": "address"
        },
        {
          "internalType": "uint256",
          "name": "_carbonAmount",
          "type": "uint256"
        },
        {
          "internalType": "string",
          "name": "_ipfsHash",
          "type": "string"
        }
      ],
      "name": "createProjectAndMint",
      "outputs": [],
      "stateMutability": "nonpayable",
      "type": "function"
    },
    {
      "inputs": [
        {
          "internalType": "uint256",
          "name": "amount",
          "type": "uint256"
        }
      ],
      "name": "purchaseCredits",
      "outputs": [],
      "stateMutability": "payable",
      "type": "function",
      "payable": true
    },
    {
      "inputs": [
        {
          "internalType": "uint256",
          "name": "price",
          "type": "uint256"
        }
      ],
      "name": "setCreditPrice",
      "outputs": [],
      "stateMutability": "nonpayable",
      "type": "function"
    },
    {
      "inputs": [],
      "name": "withdraw",
      "outputs": [],
      "stateMutability": "nonpayable",
      "type": "function"
    }
  ],
  "bytecode": "0x6080346100d257601f61100938819003918201601f19168301916001600160401b038311848410176100d75780849260409485528339810103126100d257610052602061004b836100ed565b92016100ed565b60008054336001600160a01b0319808316821784556040519590946001600160a01b03949093859391908416907f8be0079c531659141344cd1fd0a4f28419497f9722a3daafe3b4186f6b6457e09080a36001805566038d7ea4c680006004551683600254161760025516906003541617600355610f0790816101028239f35b600080fd5b634e487b7160e01b600052604160045260246000fd5b51906001600160a01b03821682036100d25756fe6080604052600436101561001257600080fd5b6000803560e01c8063107046bd14610bc857806329734bce14610b725780633ccfd60b14610b235780636469a51514610589578063715018a61461052f57806382a71ef2146105065780638da5cb5b146104df578063a2fd6917146104b6578063ad17a0b314610493578063bef101fb1461018c578063ca6358cd1461016e5763f2fde38b146100a157600080fd5b3461016b57602036600319011261016b576100ba610dde565b6100c2610e79565b6001600160a01b0390811690811561011757600054826bffffffffffffffffffffffff60a01b821617600055167f8be0079c531659141344cd1fd0a4f28419497f9722a3daafe3b4186f6b6457e0600080a380f35b60405162461bcd60e51b815260206004820152602660248201527f4f776e61626c653a206e6577206f776e657220697320746865207a65726f206160448201526564647265737360d01b6064820152608490fd5b80fd5b503461016b578060031936011261016b576020600454604051908152f35b5060208060031936011261048f576004359060026001541461044b57600260015581156104125760045480830290838204036103fc5734106103b857670de0b6b3a76400008202670de0b6b3a763ffff19838204016103a4576002546040516370a0823160e01b8152306004820152859290916001600160a01b039081168584602481845afa8015610399578694869161035f575b5083116102d9575060025460405163a9059cbb60e01b8152336004820152602481019390935291938492604492849291165af180156102ce57610293575b507f6a794c69c1d2a9f9289cd879feb3dd19ff74d32bd8889eab454a75de62d6d4a0905b6040519283523392a26001805580f35b8181813d83116102c7575b6102a88183610cd6565b810103126102c35751801515036102bf573861025f565b8280fd5b8380fd5b503d61029e565b6040513d86823e3d90fd5b91925050803b156102bf57604051639bae874760e01b8152336004820152602481019290925282908290604490829084905af1801561035457610340575b50507f6a794c69c1d2a9f9289cd879feb3dd19ff74d32bd8889eab454a75de62d6d4a090610283565b61034990610cac565b6102bf578238610317565b6040513d84823e3d90fd5b94809296508591503d8311610392575b6103798183610cd6565b8101031261038d5786938286945190610221565b600080fd5b503d61036f565b6040513d87823e3d90fd5b634e487b7160e01b84526011600452602484fd5b6064906040519062461bcd60e51b82526004820152601860248201527f496e73756666696369656e7420455448207061796d656e7400000000000000006044820152fd5b634e487b7160e01b600052601160045260246000fd5b6064906040519062461bcd60e51b8252600482015260126024820152710416d6f756e74206d757374206265203e20360741b6044820152fd5b6064906040519062461bcd60e51b82526004820152601f60248201527f5265656e7472616e637947756172643a207265656e7472616e742063616c6c006044820152fd5b5080fd5b503461016b57602036600319011261016b576104ad610e79565b60043560045580f35b503461016b578060031936011261016b576003546040516001600160a01b039091168152602090f35b503461016b578060031936011261016b57546040516001600160a01b039091168152602090f35b503461016b578060031936011261016b576002546040516001600160a01b039091168152602090f35b503461016b578060031936011261016b57610548610e79565b600080546001600160a01b0319811682556001600160a01b03167f8be0079c531659141344cd1fd0a4f28419497f9722a3daafe3b4186f6b6457e08280a380f35b503461016b5760a036600319011261016b5760243567ffffffffffffffff811161048f576105bb903690600401610e22565b6001600160a01b0360443581811681036102c35760843567ffffffffffffffff8111610b1f576105ef903690600401610e22565b92600435855260056020526040852054610ae157670de0b6b3a764000060643510610a9c5782821615610a57578493602084600354166024604051809881936375223fc960e11b835289891660048401525af1948515610a4c578695610a14575b508360025416803b15610a1057604051639bae874760e01b81526001600160a01b038516600482015260643560248201529087908290604490829084905af18015610a05576109f2575b50600435865260056020526040862091600435835580519067ffffffffffffffff82116109de5781906106d06001860154610c72565b601f811161098d575b50602090601f831160011461091e578992610913575b50508160011b916000199060031b1c19161760018301555b6002820180546001600160a01b03191684861617905560643560038301819055600483015580519067ffffffffffffffff82116108ff5790829161074f600588950154610c72565b601f81116108aa575b50602090601f831160011461083757600793929189918361082c575b50508160011b916000199060031b1c19161760058201555b426006820155015581811684526006602052604084208054906801000000000000000082101561081857906107c691600182018155610df4565b81549060031b90600435821b91600019901b1916179055604051926064358452602084015216907fae7ea4022fe761e89e71242dae12eaa4c39f5752aaa69306ad35c57e1e49d612604060043592a380f35b634e487b7160e01b86526041600452602486fd5b015190503880610774565b600584018952602089209493929190601f1983168a5b81811061088f5750916007959691846001959410610876575b505050811b01600582015561078c565b015160001960f88460031b161c19169055388080610866565b8383015188556001909701968a96506020938401930161084d565b909192935060058401885260208820601f840160051c8101602085106108f8575b908895949392915b601f830160051c820181106108e9575050610758565b600081558996506001016108d3565b50806108cb565b634e487b7160e01b87526041600452602487fd5b0151905038806106ef565b9250600185018952602089209089935b601f1984168510610972576001945083601f19811610610959575b505050811b016001830155610707565b015160001960f88460031b161c19169055388080610949565b8181015183556020948501946001909301929091019061092e565b90915060018501895260208920601f840160051c8101602085106109d7575b90849392915b601f830160051c820181106109c85750506106d9565b600081558594506001016109b2565b50806109ac565b634e487b7160e01b88526041600452602488fd5b6109fe90969196610cac565b943861069a565b6040513d89823e3d90fd5b8680fd5b9094506020813d602011610a44575b81610a3060209383610cd6565b81010312610a4057519338610650565b8580fd5b3d9150610a23565b6040513d88823e3d90fd5b60405162461bcd60e51b815260206004820152601a60248201527f4e474f20616464726573732063616e6e6f74206265207a65726f0000000000006044820152606490fd5b60405162461bcd60e51b815260206004820152601f60248201527f636172626f6e416d6f756e74206d757374206265203e3d2031206574686572006044820152606490fd5b60405162461bcd60e51b815260206004820152601660248201527550726f6a65637420616c72656164792065786973747360501b6044820152606490fd5b8480fd5b503461016b578060031936011261016b57610b3c610e79565b8080808060018060a01b038154164790828215610b69575bf115610b5d5780f35b604051903d90823e3d90fd5b506108fc610b54565b503461016b57604036600319011261016b57610b8c610dde565b6001600160a01b031681526006602052604081208054602435929083101561016b576020610bba8484610df4565b90546040519160031b1c8152f35b503461016b57602036600319011261016b5760409060043581526005602052208054610bf660018301610cf8565b9160018060a01b03600282015416610c636003830154916004840154610c1e60058601610cf8565b906007600687015496015494610c46604051998a998a526101008060208c01528a0190610d9e565b9360408901526060880152608087015285820360a0870152610d9e565b9160c084015260e08301520390f35b90600182811c92168015610ca2575b6020831014610c8c57565b634e487b7160e01b600052602260045260246000fd5b91607f1691610c81565b67ffffffffffffffff8111610cc057604052565b634e487b7160e01b600052604160045260246000fd5b90601f8019910116810190811067ffffffffffffffff821117610cc057604052565b9060405191826000825492610d0c84610c72565b908184526001948581169081600014610d7b5750600114610d38575b5050610d3692500383610cd6565b565b9093915060005260209081600020936000915b818310610d63575050610d3693508201013880610d28565b85548884018501529485019487945091830191610d4b565b915050610d3694506020925060ff191682840152151560051b8201013880610d28565b919082519283825260005b848110610dca575050826000602080949584010152601f8019910116010190565b602081830181015184830182015201610da9565b600435906001600160a01b038216820361038d57565b8054821015610e0c5760005260206000200190600090565b634e487b7160e01b600052603260045260246000fd5b81601f8201121561038d5780359067ffffffffffffffff8211610cc05760405192610e57601f8401601f191660200185610cd6565b8284526020838301011161038d57816000926020809301838601378301015290565b6000546001600160a01b03163303610e8d57565b606460405162461bcd60e51b815260206004820152602060248201527f4f776e61626c653a2063616c6c6572206973206e6f7420746865206f776e65726044820152fdfea2646970667358221220e83e936510e91f3c8e16d1a38f0414144048cb4929bb76a2bb86c1872145bff464736f6c63430008130033",
  "immutableReferences": {},
  "source": "// SPDX-License-Identifier: MIT\npragma solidity ^0.8.19;\n\nimport \"./CarbonCreditToken.sol\";\nimport \"./CarbonProjectNFT.sol\";\nimport \"@openzeppelin/contracts/access/Ownable.sol\";\nimport \"@openzeppelin/contracts/security/ReentrancyGuard.sol\";\n\ncontract CarbonCreditSystem is Ownable, ReentrancyGuard {\n\n    CarbonCreditToken public carbonToken;\n    CarbonProjectNFT  public projectNFT;\n\n    uint256 public creditPrice = 0.001 ether;\n\n    struct Project {\n        uint256 projectId;\n        string  projectName;\n        address ngoDeveloper;\n        uint256 carbonAmount;\n        uint256 creditsIssued;\n        string  ipfsHash;\n        uint256 mintedAt;\n        uint256 nftTokenId;\n    }\n\n    mapping(uint256 => Project) public projects;\n    mapping(address => uint256[]) public ngoProjects;\n\n    event ProjectCreatedAndMinted(uint256 indexed projectId, address indexed ngo, uint256 credits, uint256 nftTokenId);\n\n    constructor(address _token, address _nft) {\n        carbonToken = CarbonCreditToken(_token);\n        projectNFT  = CarbonProjectNFT(_nft);\n    }\n\n    /**\n     * 🎯 SINGLE STEP: Create project + mint credits + NFT in ONE transaction\n     * No multi-step verification needed\n     */\nfunction createProjectAndMint(\n        uint256 _projectId,\n        string memory _projectName,\n        address _ngoDeveloper,\n        uint256 _carbonAmount,\n        string memory _ipfsHash\n    ) public {\n        require(projects[_projectId].projectId == 0, \"Project already exists\");\n        require(_carbonAmount >= 1 ether, \"carbonAmount must be >= 1 ether\");\n        require(_ngoDeveloper != address(0), \"NGO address cannot be zero\");\n\n        // Mint NFT - CarbonCreditSystem has MINTER_ROLE\n        uint256 nftId = projectNFT.mintProjectNFT(_ngoDeveloper);\n\n        // Mint carbon credits - CarbonCreditSystem has MINTER_ROLE\n        carbonToken.mintCredits(_ngoDeveloper, _carbonAmount);\n\n        // Store project data\n        Project storage project = projects[_projectId];\n        project.projectId = _projectId;\n        project.projectName = _projectName;\n        project.ngoDeveloper = _ngoDeveloper;\n        project.carbonAmount = _carbonAmount;\n        project.creditsIssued = _carbonAmount;\n        project.ipfsHash = _ipfsHash;\n        project.mintedAt = block.timestamp;\n        project.nftTokenId = nftId;\n\n        ngoProjects[_ngoDeveloper].push(_projectId);\n\n        emit ProjectCreatedAndMinted(_projectId, _ngoDeveloper, _carbonAmount, nftId);\n    }\n\n\n    function purchaseCredits(uint256 amount) public payable nonReentrant {\n        require(amount > 0, \"Amount must be > 0\");\n        require(msg.value >= amount * creditPrice, \"Insufficient ETH payment\");\n        uint256 tokenAmount = amount * 10**18;\n        if (carbonToken.balanceOf(address(this)) >= tokenAmount) {\n            carbonToken.transfer(msg.sender, tokenAmount);\n        } else {\n            carbonToken.mintCredits(msg.sender, tokenAmount);\n        }\n        emit CreditsTransferred(msg.sender, amount);\n    }\n\n    function setCreditPrice(uint256 price) public onlyOwner { creditPrice = price; }\n    function withdraw() public onlyOwner { payable(owner()).transfer(address(this).balance); }\n    \n    event CreditsTransferred(address indexed buyer, uint256 amount);\n}\n",
  "sourcePath": "D:\\MINI CAPSTONE\\BlueCarbonMRV_FIXED\\Truffle\\contracts\\CarbonCreditSystem.sol",
  "compiler": {
    "name": "solc",
    "version": "0.8.19+commit.7dd6d404.Emscripten.clang"
  },
  "schemaVersion": "3.4.16",
  "updatedAt": "2026-04-15T18:15:59.438Z",
  "networkType": "ethereum",
  "devdoc": {
    "kind": "dev",
    "methods": {
      "owner()": {
        "details": "Returns the address of the current owner."
      },
      "renounceOwnership()": {
        "details": "Leaves the contract without owner. It will not be possible to call `onlyOwner` functions. Can only be called by the current owner. NOTE: Renouncing ownership will leave the contract without an owner, thereby disabling any functionality that is only available to the owner."
      },
      "transferOwnership(address)": {
        "details": "Transfers ownership of the contract to a new account (`newOwner`). Can only be called by the current owner."
      }
    },
    "version": 1
  },
  "userdoc": {
    "kind": "user",
    "methods": {
      "createProjectAndMint(uint256,string,address,uint256,string)": {
        "notice": "🎯 SINGLE STEP: Create project + mint credits + NFT in ONE transaction No multi-step verification needed"
      }
    },
    "version": 1
  }
}