{
  "contractName": "CarbonProjectNFT",
  "abi": [
    {
      "inputs": [],
      "stateMutability": "nonpayable",
      "type": "constructor"
    },
    {
      "anonymous": false,
      "inputs": [
        {
          "indexed": true,
          "internalType": "address",
          "name": "owner",
          "type": "address"
        },
        {
          "indexed": true,
          "internalType": "address",
          "name": "approved",
          "type": "address"
        },
        {
          "indexed": true,
          "internalType": "uint256",
          "name": "tokenId",
          "type": "uint256"
        }
      ],
      "name": "Approval",
      "type": "event"
    },
    {
      "anonymous": false,
      "inputs": [
        {
          "indexed": true,
          "internalType": "address",
          "name": "owner",
          "type": "address"
        },
        {
          "indexed": true,
          "internalType": "address",
          "name": "operator",
          "type": "address"
        },
        {
          "indexed": false,
          "internalType": "bool",
          "name": "approved",
          "type": "bool"
        }
      ],
      "name": "ApprovalForAll",
      "type": "event"
    },
    {
      "anonymous": false,
      "inputs": [
        {
          "indexed": true,
          "internalType": "address",
          "name": "to",
          "type": "address"
        },
        {
          "indexed": false,
          "internalType": "uint256",
          "name": "tokenId",
          "type": "uint256"
        }
      ],
      "name": "ProjectNFTMinted",
      "type": "event"
    },
    {
      "anonymous": false,
      "inputs": [
        {
          "indexed": true,
          "internalType": "bytes32",
          "name": "role",
          "type": "bytes32"
        },
        {
          "indexed": true,
          "internalType": "bytes32",
          "name": "previousAdminRole",
          "type": "bytes32"
        },
        {
          "indexed": true,
          "internalType": "bytes32",
          "name": "newAdminRole",
          "type": "bytes32"
        }
      ],
      "name": "RoleAdminChanged",
      "type": "event"
    },
    {
      "anonymous": false,
      "inputs": [
        {
          "indexed": true,
          "internalType": "bytes32",
          "name": "role",
          "type": "bytes32"
        },
        {
          "indexed": true,
          "internalType": "address",
          "name": "account",
          "type": "address"
        },
        {
          "indexed": true,
          "internalType": "address",
          "name": "sender",
          "type": "address"
        }
      ],
      "name": "RoleGranted",
      "type": "event"
    },
    {
      "anonymous": false,
      "inputs": [
        {
          "indexed": true,
          "internalType": "bytes32",
          "name": "role",
          "type": "bytes32"
        },
        {
          "indexed": true,
          "internalType": "address",
          "name": "account",
          "type": "address"
        },
        {
          "indexed": true,
          "internalType": "address",
          "name": "sender",
          "type": "address"
        }
      ],
      "name": "RoleRevoked",
      "type": "event"
    },
    {
      "anonymous": false,
      "inputs": [
        {
          "indexed": true,
          "internalType": "address",
          "name": "from",
          "type": "address"
        },
        {
          "indexed": true,
          "internalType": "address",
          "name": "to",
          "type": "address"
        },
        {
          "indexed": true,
          "internalType": "uint256",
          "name": "tokenId",
          "type": "uint256"
        }
      ],
      "name": "Transfer",
      "type": "event"
    },
    {
      "inputs": [],
      "name": "DEFAULT_ADMIN_ROLE",
      "outputs": [
        {
          "internalType": "bytes32",
          "name": "",
          "type": "bytes32"
        }
      ],
      "stateMutability": "view",
      "type": "function",
      "constant": true
    },
    {
      "inputs": [],
      "name": "MINTER_ROLE",
      "outputs": [
        {
          "internalType": "bytes32",
          "name": "",
          "type": "bytes32"
        }
      ],
      "stateMutability": "view",
      "type": "function",
      "constant": true
    },
    {
      "inputs": [
        {
          "internalType": "address",
          "name": "to",
          "type": "address"
        },
        {
          "internalType": "uint256",
          "name": "tokenId",
          "type": "uint256"
        }
      ],
      "name": "approve",
      "outputs": [],
      "stateMutability": "nonpayable",
      "type": "function"
    },
    {
      "inputs": [
        {
          "internalType": "address",
          "name": "owner",
          "type": "address"
        }
      ],
      "name": "balanceOf",
      "outputs": [
        {
          "internalType": "uint256",
          "name": "",
          "type": "uint256"
        }
      ],
      "stateMutability": "view",
      "type": "function",
      "constant": true
    },
    {
      "inputs": [
        {
          "internalType": "uint256",
          "name": "tokenId",
          "type": "uint256"
        }
      ],
      "name": "getApproved",
      "outputs": [
        {
          "internalType": "address",
          "name": "",
          "type": "address"
        }
      ],
      "stateMutability": "view",
      "type": "function",
      "constant": true
    },
    {
      "inputs": [
        {
          "internalType": "bytes32",
          "name": "role",
          "type": "bytes32"
        }
      ],
      "name": "getRoleAdmin",
      "outputs": [
        {
          "internalType": "bytes32",
          "name": "",
          "type": "bytes32"
        }
      ],
      "stateMutability": "view",
      "type": "function",
      "constant": true
    },
    {
      "inputs": [
        {
          "internalType": "bytes32",
          "name": "role",
          "type": "bytes32"
        },
        {
          "internalType": "address",
          "name": "account",
          "type": "address"
        }
      ],
      "name": "grantRole",
      "outputs": [],
      "stateMutability": "nonpayable",
      "type": "function"
    },
    {
      "inputs": [
        {
          "internalType": "bytes32",
          "name": "role",
          "type": "bytes32"
        },
        {
          "internalType": "address",
          "name": "account",
          "type": "address"
        }
      ],
      "name": "hasRole",
      "outputs": [
        {
          "internalType": "bool",
          "name": "",
          "type": "bool"
        }
      ],
      "stateMutability": "view",
      "type": "function",
      "constant": true
    },
    {
      "inputs": [
        {
          "internalType": "address",
          "name": "owner",
          "type": "address"
        },
        {
          "internalType": "address",
          "name": "operator",
          "type": "address"
        }
      ],
      "name": "isApprovedForAll",
      "outputs": [
        {
          "internalType": "bool",
          "name": "",
          "type": "bool"
        }
      ],
      "stateMutability": "view",
      "type": "function",
      "constant": true
    },
    {
      "inputs": [],
      "name": "name",
      "outputs": [
        {
          "internalType": "string",
          "name": "",
          "type": "string"
        }
      ],
      "stateMutability": "view",
      "type": "function",
      "constant": true
    },
    {
      "inputs": [
        {
          "internalType": "uint256",
          "name": "tokenId",
          "type": "uint256"
        }
      ],
      "name": "ownerOf",
      "outputs": [
        {
          "internalType": "address",
          "name": "",
          "type": "address"
        }
      ],
      "stateMutability": "view",
      "type": "function",
      "constant": true
    },
    {
      "inputs": [
        {
          "internalType": "bytes32",
          "name": "role",
          "type": "bytes32"
        },
        {
          "internalType": "address",
          "name": "account",
          "type": "address"
        }
      ],
      "name": "renounceRole",
      "outputs": [],
      "stateMutability": "nonpayable",
      "type": "function"
    },
    {
      "inputs": [
        {
          "internalType": "bytes32",
          "name": "role",
          "type": "bytes32"
        },
        {
          "internalType": "address",
          "name": "account",
          "type": "address"
        }
      ],
      "name": "revokeRole",
      "outputs": [],
      "stateMutability": "nonpayable",
      "type": "function"
    },
    {
      "inputs": [
        {
          "internalType": "address",
          "name": "from",
          "type": "address"
        },
        {
          "internalType": "address",
          "name": "to",
          "type": "address"
        },
        {
          "internalType": "uint256",
          "name": "tokenId",
          "type": "uint256"
        }
      ],
      "name": "safeTransferFrom",
      "outputs": [],
      "stateMutability": "nonpayable",
      "type": "function"
    },
    {
      "inputs": [
        {
          "internalType": "address",
          "name": "from",
          "type": "address"
        },
        {
          "internalType": "address",
          "name": "to",
          "type": "address"
        },
        {
          "internalType": "uint256",
          "name": "tokenId",
          "type": "uint256"
        },
        {
          "internalType": "bytes",
          "name": "data",
          "type": "bytes"
        }
      ],
      "name": "safeTransferFrom",
      "outputs": [],
      "stateMutability": "nonpayable",
      "type": "function"
    },
    {
      "inputs": [
        {
          "internalType": "address",
          "name": "operator",
          "type": "address"
        },
        {
          "internalType": "bool",
          "name": "approved",
          "type": "bool"
        }
      ],
      "name": "setApprovalForAll",
      "outputs": [],
      "stateMutability": "nonpayable",
      "type": "function"
    },
    {
      "inputs": [],
      "name": "symbol",
      "outputs": [
        {
          "internalType": "string",
          "name": "",
          "type": "string"
        }
      ],
      "stateMutability": "view",
      "type": "function",
      "constant": true
    },
    {
      "inputs": [
        {
          "internalType": "uint256",
          "name": "tokenId",
          "type": "uint256"
        }
      ],
      "name": "tokenURI",
      "outputs": [
        {
          "internalType": "string",
          "name": "",
          "type": "string"
        }
      ],
      "stateMutability": "view",
      "type": "function",
      "constant": true
    },
    {
      "inputs": [
        {
          "internalType": "address",
          "name": "from",
          "type": "address"
        },
        {
          "internalType": "address",
          "name": "to",
          "type": "address"
        },
        {
          "internalType": "uint256",
          "name": "tokenId",
          "type": "uint256"
        }
      ],
      "name": "transferFrom",
      "outputs": [],
      "stateMutability": "nonpayable",
      "type": "function"
    },
    {
      "inputs": [
        {
          "internalType": "address",
          "name": "to",
          "type": "address"
        }
      ],
      "name": "mintProjectNFT",
      "outputs": [
        {
          "internalType": "uint256",
          "name": "",
          "type": "uint256"
        }
      ],
      "stateMutability": "nonpayable",
      "type": "function"
    },
    {
      "inputs": [],
      "name": "nextTokenId",
      "outputs": [
        {
          "internalType": "uint256",
          "name": "",
          "type": "uint256"
        }
      ],
      "stateMutability": "view",
      "type": "function",
      "constant": true
    },
    {
      "inputs": [
        {
          "internalType": "bytes4",
          "name": "interfaceId",
          "type": "bytes4"
        }
      ],
      "name": "supportsInterface",
      "outputs": [
        {
          "internalType": "bool",
          "name": "",
          "type": "bool"
        }
      ],
      "stateMutability": "view",
      "type": "function",
      "constant": true
    }
  ],
  "bytecode": "0x608034620003e95760406001600160401b0382820181811184821017620003d3578252601283526020907110d85c989bdb88141c9bda9958dd0813919560721b8285015282519383850185811083821117620003d3578452600385526221a82760e91b83860152805191808311620003d3576000928354906001938483811c93168015620003c8575b87841014620003b4578190601f9384811162000361575b508790848311600114620002fd578792620002f1575b5050600019600383901b1c191690841b1784555b8651918211620002dd5782548381811c91168015620002d2575b86821014620002be5781811162000276575b50849082116001146200021357839495968293949262000207575b5050600019600383901b1c191690821b1781555b8060075581805260068352838220338352835260ff848320541615620001cf575b7f9f2df0fed2c77648de5860a4cc508cd0818c85b8b8a1ab4ceeef8d981c8956a69283835260068152848320338452815260ff85842054161562000193575b84516118889081620003ef8239f35b8383526006815284832090338452528382209060ff19825416179055339160008051602062001c77833981519152339280a43880808062000184565b8180526006835283822033835283528382208160ff1982541617905533338360008051602062001c778339815191528180a462000145565b01519050388062000110565b82845284842090601f198316855b818110620002605750978385969798991062000246575b505050811b01815562000124565b015160001960f88460031b161c1916905538808062000238565b8983015184559285019291870191870162000221565b8385528585208280850160051c820192888610620002b4575b0160051c019084905b828110620002a8575050620000f5565b86815501849062000298565b925081926200028f565b634e487b7160e01b85526022600452602485fd5b90607f1690620000e3565b634e487b7160e01b84526041600452602484fd5b015190503880620000b5565b8780528888208794509190601f198416895b8b8282106200034a575050841162000330575b505050811b018455620000c9565b015160001960f88460031b161c1916905538808062000322565b8385015186558a979095019493840193016200030f565b9091508680528787208480850160051c8201928a8610620003aa575b918891869594930160051c01915b8281106200039b5750506200009f565b8981558594508891016200038b565b925081926200037d565b634e487b7160e01b86526022600452602486fd5b92607f169262000088565b634e487b7160e01b600052604160045260246000fd5b600080fdfe608060408181526004908136101561001657600080fd5b600092833560e01c90816301ffc9a714610ddc5750806306fdde0314610d11578063081812fc14610cf1578063095ea7b314610b8357806323b872dd14610b5e578063248a9ca314610b335780632f2ff15d14610a8657806336568abe146109f457806342842e0e146109c05780636352211e1461098f57806370a08231146108f957806375794a3c146108da57806391d148541461089357806395d89b411461077d578063a217fddf14610762578063a22cb46514610694578063b88d4fde146105ea578063c87b56dd1461057a578063d53913931461053f578063d547741f14610502578063e985e9c5146104b05763ea447f921461011657600080fd5b346104ac57602092836003193601126104a957610131610eaa565b907f9f2df0fed2c77648de5860a4cc508cd0818c85b8b8a1ab4ceeef8d981c8956a680825260068652838220338352865260ff8483205416156102e357506001600160a01b0382169182156102915760075494600019861461027e5750610250918561024b926001820160075581868851946101ac86610f10565b8086526000838152600260205260409020546101d4906001600160a01b031615155b15611806565b6000838152600260205260409020546101f7906001600160a01b031615156101ce565b81815260038c528981208054600101905582815260028c5289812080546001600160a01b031916831790557fddf252ad1be2c89b69c2b068fc378daa952ba7f163c4a11628f55a4df523b3ef8180a4611529565b61132b565b7fe6fb7409d6694ea202826b3f674ae9e7347853d3cb0d4b8384c421222346de7f848351858152a251908152f35b634e487b7160e01b835260119052602482fd5b835162461bcd60e51b8152808601879052602660248201527f436172626f6e50726f6a6563744e46543a206d696e7420746f207a65726f206160448201526564647265737360d01b6064820152608490fd5b91506102ee336116f7565b918351906102fb82610f42565b6042825286820192606036853782511561049657603084538251906001918210156104835790607860218501536041915b818311610418575050506103d75760486103aa9385936103b9936103d3975196879376020b1b1b2b9b9a1b7b73a3937b61d1030b1b1b7bab73a1604d1b8c8601526103818c8251928391603789019101610e62565b8401917001034b99036b4b9b9b4b733903937b6329607d1b603784015251809386840190610e62565b01036028810185520183610f5e565b5193849362461bcd60e51b85528401526024830190610e85565b0390fd5b606485878087519262461bcd60e51b845283015260248201527f537472696e67733a20686578206c656e67746820696e73756666696369656e746044820152fd5b909192600f81166010811015610470576f181899199a1a9b1b9c1cb0b131b232b360811b901a61044885876116d0565b53881c92801561045d5760001901919061032c565b634e487b7160e01b825260118952602482fd5b634e487b7160e01b835260328a52602483fd5b634e487b7160e01b815260328852602490fd5b634e487b7160e01b815260328752602490fd5b80fd5b8280fd5b8382346104fe57806003193601126104fe5760ff816020936104d0610eaa565b6104d8610ec5565b6001600160a01b0391821683526005875283832091168252855220549151911615158152f35b5080fd5b50346104ac57806003193601126104ac5761053c91356105376001610525610ec5565b93838752600660205286200154610f9c565b611150565b80f35b8382346104fe57816003193601126104fe57602090517f9f2df0fed2c77648de5860a4cc508cd0818c85b8b8a1ab4ceeef8d981c8956a68152f35b508290346104fe5760203660031901126104fe576105b96105b46105e69435600052600260205260018060a01b0360406000205416151590565b6111c6565b8181516105c581610f10565b528051916105d283610f10565b825251918291602083526020830190610e85565b0390f35b50346104ac5760803660031901126104ac57610604610eaa565b9061060d610ec5565b604435906064359467ffffffffffffffff86116106905736602387011215610690578501359361064861063f86610f80565b94519485610f5e565b8484528636602487890101116104a95760208661024b97602461053c9a01838901378601015261068061067b843361134b565b611276565b61068b838383611413565b611645565b8680fd5b50346104ac57806003193601126104ac576106ad610eaa565b906024359182151580930361075e576001600160a01b03169233841461071c5750338452600560205280842083855260205280842060ff1981541660ff8416179055519081527f17307eab39ab6107e8899845ad3d59bd9653f200f220920489ca2b5937696c3160203392a380f35b6020606492519162461bcd60e51b8352820152601960248201527f4552433732313a20617070726f766520746f2063616c6c6572000000000000006044820152fd5b8480fd5b8382346104fe57816003193601126104fe5751908152602090f35b5082346104a957806003193601126104a9578151918160019283549384811c91818616958615610889575b6020968785108114610876578899509688969785829a52918260001461084f5750506001146107f4575b5050506105e692916107e5910385610f5e565b51928284938452830190610e85565b91908693508083527fb10e2d527612073b26eecdfd717e6a320cf44b4afac2b0732d9fcbe2b7fa0cf65b82841061083757505050820101816107e56105e66107d2565b8054848a01860152889550879490930192810161081e565b60ff19168782015293151560051b860190930193508492506107e591506105e690506107d2565b634e487b7160e01b835260228a52602483fd5b92607f16926107a8565b5090346104ac57816003193601126104ac578160209360ff926108b4610ec5565b90358252600686528282206001600160a01b039091168252855220549151911615158152f35b8382346104fe57816003193601126104fe576020906007549051908152f35b509190346104fe5760203660031901126104fe576001600160a01b0361091d610eaa565b1690811561093a5760208480858581526003845220549051908152f35b608490602085519162461bcd60e51b8352820152602960248201527f4552433732313a2061646472657373207a65726f206973206e6f7420612076616044820152683634b21037bbb732b960b91b6064820152fd5b5082346104a95760203660031901126104a957506109af60209235611212565b90516001600160a01b039091168152f35b8382346104fe5761024b61053c916109d736610edb565b919251926109e484610f10565b86845261068061067b843361134b565b509190346104fe57826003193601126104fe57610a0f610ec5565b90336001600160a01b03831603610a2b579061053c9135611150565b608490602085519162461bcd60e51b8352820152602f60248201527f416363657373436f6e74726f6c3a2063616e206f6e6c792072656e6f756e636560448201526e103937b632b9903337b91039b2b63360891b6064820152fd5b5090346104ac57816003193601126104ac573590610aa2610ec5565b908284526006602052610aba60018286200154610f9c565b828452600660209081528185206001600160a01b039093168086529290528084205460ff1615610ae8578380f35b82845260066020528084208285526020528320600160ff1982541617905533917f2f8788117e7eff1d82e926ec794901d17c78024a50270940304540a733656f0d8480a43880808380f35b5090346104ac5760203660031901126104ac5781602093600192358152600685522001549051908152f35b83346104a95761053c610b7036610edb565b91610b7e61067b843361134b565b611413565b5090346104ac57816003193601126104ac57610b9d610eaa565b6024359290916001600160a01b0391908280610bb887611212565b16941693808514610ca457803314908115610c85575b5015610c1d57848652602052842080546001600160a01b03191683179055610bf583611212565b167f8c5be1e5ebec7d5bd14f71427d1e84f3dd0314c0f7b2291e5b200ac8c7c3b9258480a480f35b6020608492519162461bcd60e51b8352820152603d60248201527f4552433732313a20617070726f76652063616c6c6572206973206e6f7420746f60448201527f6b656e206f776e6572206f7220617070726f76656420666f7220616c6c0000006064820152fd5b90508652600560205281862033875260205260ff828720541638610bce565b506020608492519162461bcd60e51b8352820152602160248201527f4552433732313a20617070726f76616c20746f2063757272656e74206f776e656044820152603960f91b6064820152fd5b5082346104a95760203660031901126104a957506109af60209235611238565b5082346104a957806003193601126104a95781519181825492600184811c91818616958615610dd2575b6020968785108114610876578899509688969785829a52918260001461084f575050600114610d77575050506105e692916107e5910385610f5e565b91908693508280527f290decd9548b62a8d60345a988386fc84ba6bc95484008f6362f93160ef3e5635b828410610dba57505050820101816107e56105e66107d2565b8054848a018601528895508794909301928101610da1565b92607f1692610d3b565b849084346104ac5760203660031901126104ac573563ffffffff60e01b81168091036104ac5760209250637965db0b60e01b8114908115610e1f575b5015158152f35b6380ac58cd60e01b811491508115610e51575b8115610e40575b5083610e18565b6301ffc9a760e01b14905083610e39565b635b5e139f60e01b81149150610e32565b60005b838110610e755750506000910152565b8181015183820152602001610e65565b90602091610e9e81518092818552858086019101610e62565b601f01601f1916010190565b600435906001600160a01b0382168203610ec057565b600080fd5b602435906001600160a01b0382168203610ec057565b6060906003190112610ec0576001600160a01b03906004358281168103610ec057916024359081168103610ec0579060443590565b6020810190811067ffffffffffffffff821117610f2c57604052565b634e487b7160e01b600052604160045260246000fd5b6080810190811067ffffffffffffffff821117610f2c57604052565b90601f8019910116810190811067ffffffffffffffff821117610f2c57604052565b67ffffffffffffffff8111610f2c57601f01601f191660200190565b60009080825260209060068252604092838120338252835260ff848220541615610fc65750505050565b610fcf336116f7565b91845190610fdc82610f42565b6042825284820192606036853782511561113c576030845382519060019182101561113c5790607860218501536041915b8183116110ce5750505061108c5760486103d393869361107093611061985198899376020b1b1b2b9b9a1b7b73a3937b61d1030b1b1b7bab73a1604d1b8a860152610381815180928c603789019101610e62565b01036028810187520185610f5e565b5192839262461bcd60e51b845260048401526024830190610e85565b60648486519062461bcd60e51b825280600483015260248201527f537472696e67733a20686578206c656e67746820696e73756666696369656e746044820152fd5b909192600f81166010811015611128576f181899199a1a9b1b9c1cb0b131b232b360811b901a6110fe85876116d0565b5360041c9280156111145760001901919061100d565b634e487b7160e01b82526011600452602482fd5b634e487b7160e01b83526032600452602483fd5b634e487b7160e01b81526032600452602490fd5b906000918083526006602052604083209160018060a01b03169182845260205260ff60408420541661118157505050565b8083526006602052604083208284526020526040832060ff1981541690557ff6391f5c32d9c69d2a47ea670b442974b53935d1edc7fd64eb21e047a839171b339380a4565b156111cd57565b60405162461bcd60e51b815260206004820152601860248201527f4552433732313a20696e76616c696420746f6b656e20494400000000000000006044820152606490fd5b6000908152600260205260409020546001600160a01b03166112358115156111c6565b90565b60008181526002602052604090205461125b906001600160a01b031615156111c6565b6000908152600460205260409020546001600160a01b031690565b1561127d57565b60405162461bcd60e51b815260206004820152602d60248201527f4552433732313a2063616c6c6572206973206e6f7420746f6b656e206f776e6560448201526c1c881bdc88185c1c1c9bdd9959609a1b6064820152608490fd5b60809060208152603260208201527f4552433732313a207472616e7366657220746f206e6f6e20455243373231526560408201527131b2b4bb32b91034b6b83632b6b2b73a32b960711b60608201520190565b1561133257565b60405162461bcd60e51b8152806103d3600482016112d8565b906001600160a01b03808061135f84611212565b16931691838314938415611392575b50831561137c575b50505090565b61138891929350611238565b1614388080611376565b909350600052600560205260406000208260005260205260ff60406000205416923861136e565b156113c057565b60405162461bcd60e51b815260206004820152602560248201527f4552433732313a207472616e736665722066726f6d20696e636f72726563742060448201526437bbb732b960d91b6064820152608490fd5b9061143b9161142184611212565b6001600160a01b03939184169284929091831684146113b9565b169182156114d857816114589161145186611212565b16146113b9565b7fddf252ad1be2c89b69c2b068fc378daa952ba7f163c4a11628f55a4df523b3ef60008481526004602052604081206bffffffffffffffffffffffff60a01b9081815416905583825260036020526040822060001981540190558482526040822060018154019055858252600260205284604083209182541617905580a4565b60405162461bcd60e51b8152602060048201526024808201527f4552433732313a207472616e7366657220746f20746865207a65726f206164646044820152637265737360e01b6064820152608490fd5b9192600092909190803b1561163b57611577946040518092630a85bd0160e11b9485835233600484015287602484015260448301526080606483015281878160209a8b966084830190610e85565b03926001600160a01b03165af18491816115fb575b506115ea575050503d6000146115e2573d6115a681610f80565b906115b46040519283610f5e565b81528091833d92013e5b805191826115df5760405162461bcd60e51b8152806103d3600482016112d8565b01fd5b5060606115be565b6001600160e01b0319161492509050565b9091508581813d8311611634575b6116138183610f5e565b8101031261075e57516001600160e01b03198116810361075e57903861158c565b503d611609565b5050915050600190565b9293600093909291803b156116c55794849161169f9660405180948193630a85bd0160e11b9788845233600485015260018060a01b0380921660248501526044840152608060648401528260209b8c976084830190610e85565b0393165af18491816115fb57506115ea575050503d6000146115e2573d6115a681610f80565b505050915050600190565b9081518110156116e1570160200190565b634e487b7160e01b600052603260045260246000fd5b604051906060820182811067ffffffffffffffff821117610f2c57604052602a82526020820160403682378251156116e1576030905381516001908110156116e157607860218401536029905b8082116117985750506117545790565b606460405162461bcd60e51b815260206004820152602060248201527f537472696e67733a20686578206c656e67746820696e73756666696369656e746044820152fd5b9091600f811660108110156117f1576f181899199a1a9b1b9c1cb0b131b232b360811b901a6117c784866116d0565b5360041c9180156117dc576000190190611744565b60246000634e487b7160e01b81526011600452fd5b60246000634e487b7160e01b81526032600452fd5b1561180d57565b60405162461bcd60e51b815260206004820152601c60248201527f4552433732313a20746f6b656e20616c7265616479206d696e746564000000006044820152606490fdfea26469706673582212206c6f6dd1fa9efc3f09c2db193204a1387180d81032713d8210d86a6975811cc764736f6c634300081300332f8788117e7eff1d82e926ec794901d17c78024a50270940304540a733656f0d",
  "immutableReferences": {},
  "source": "// SPDX-License-Identifier: MIT\r\npragma solidity ^0.8.19;\r\n\r\nimport \"@openzeppelin/contracts/token/ERC721/ERC721.sol\";\r\nimport \"@openzeppelin/contracts/access/AccessControl.sol\";\r\n\r\ncontract CarbonProjectNFT is ERC721, AccessControl {\r\n    bytes32 public constant MINTER_ROLE = keccak256(\"MINTER_ROLE\");\r\n    uint256 private _nextTokenId = 1;\r\n\r\n    event ProjectNFTMinted(address indexed to, uint256 tokenId);\r\n\r\n    constructor() ERC721(\"Carbon Project NFT\", \"CPN\") {\r\n        _grantRole(DEFAULT_ADMIN_ROLE, msg.sender);\r\n        _grantRole(MINTER_ROLE, msg.sender);\r\n    }\r\n\r\n    function mintProjectNFT(address to) public onlyRole(MINTER_ROLE) returns(uint256) {\r\n        require(to != address(0), \"CarbonProjectNFT: mint to zero address\");\r\n\r\n        uint256 tokenId = _nextTokenId;\r\n        _nextTokenId++;\r\n\r\n        _safeMint(to, tokenId);\r\n\r\n        emit ProjectNFTMinted(to, tokenId);\r\n\r\n        return tokenId;\r\n    }\r\n\r\n    function nextTokenId() external view returns (uint256) {\r\n        return _nextTokenId;\r\n    }\r\n\r\n    function supportsInterface(bytes4 interfaceId)\r\n        public\r\n        view\r\n        override(ERC721, AccessControl)\r\n        returns (bool)\r\n    {\r\n        return super.supportsInterface(interfaceId);\r\n    }\r\n}",
  "sourcePath": "D:\\MINI CAPSTONE\\BlueCarbonMRV_FIXED\\Truffle\\contracts\\CarbonProjectNFT.sol",
  "compiler": {
    "name": "solc",
    "version": "0.8.19+commit.7dd6d404.Emscripten.clang"
  },
  "schemaVersion": "3.4.16",
  "updatedAt": "2026-04-15T18:15:59.429Z",
  "networkType": "ethereum",
  "devdoc": {
    "events": {
      "Approval(address,address,uint256)": {
        "details": "Emitted when `owner` enables `approved` to manage the `tokenId` token."
      },
      "ApprovalForAll(address,address,bool)": {
        "details": "Emitted when `owner` enables or disables (`approved`) `operator` to manage all of its assets."
      },
      "RoleAdminChanged(bytes32,bytes32,bytes32)": {
        "details": "Emitted when `newAdminRole` is set as ``role``'s admin role, replacing `previousAdminRole` `DEFAULT_ADMIN_ROLE` is the starting admin for all roles, despite {RoleAdminChanged} not being emitted signaling this. _Available since v3.1._"
      },
      "RoleGranted(bytes32,address,address)": {
        "details": "Emitted when `account` is granted `role`. `sender` is the account that originated the contract call, an admin role bearer except when using {AccessControl-_setupRole}."
      },
      "RoleRevoked(bytes32,address,address)": {
        "details": "Emitted when `account` is revoked `role`. `sender` is the account that originated the contract call:   - if using `revokeRole`, it is the admin role bearer   - if using `renounceRole`, it is the role bearer (i.e. `account`)"
      },
      "Transfer(address,address,uint256)": {
        "details": "Emitted when `tokenId` token is transferred from `from` to `to`."
      }
    },
    "kind": "dev",
    "methods": {
      "approve(address,uint256)": {
        "details": "See {IERC721-approve}."
      },
      "balanceOf(address)": {
        "details": "See {IERC721-balanceOf}."
      },
      "getApproved(uint256)": {
        "details": "See {IERC721-getApproved}."
      },
      "getRoleAdmin(bytes32)": {
        "details": "Returns the admin role that controls `role`. See {grantRole} and {revokeRole}. To change a role's admin, use {_setRoleAdmin}."
      },
      "grantRole(bytes32,address)": {
        "details": "Grants `role` to `account`. If `account` had not been already granted `role`, emits a {RoleGranted} event. Requirements: - the caller must have ``role``'s admin role. May emit a {RoleGranted} event."
      },
      "hasRole(bytes32,address)": {
        "details": "Returns `true` if `account` has been granted `role`."
      },
      "isApprovedForAll(address,address)": {
        "details": "See {IERC721-isApprovedForAll}."
      },
      "name()": {
        "details": "See {IERC721Metadata-name}."
      },
      "ownerOf(uint256)": {
        "details": "See {IERC721-ownerOf}."
      },
      "renounceRole(bytes32,address)": {
        "details": "Revokes `role` from the calling account. Roles are often managed via {grantRole} and {revokeRole}: this function's purpose is to provide a mechanism for accounts to lose their privileges if they are compromised (such as when a trusted device is misplaced). If the calling account had been revoked `role`, emits a {RoleRevoked} event. Requirements: - the caller must be `account`. May emit a {RoleRevoked} event."
      },
      "revokeRole(bytes32,address)": {
        "details": "Revokes `role` from `account`. If `account` had been granted `role`, emits a {RoleRevoked} event. Requirements: - the caller must have ``role``'s admin role. May emit a {RoleRevoked} event."
      },
      "safeTransferFrom(address,address,uint256)": {
        "details": "See {IERC721-safeTransferFrom}."
      },
      "safeTransferFrom(address,address,uint256,bytes)": {
        "details": "See {IERC721-safeTransferFrom}."
      },
      "setApprovalForAll(address,bool)": {
        "details": "See {IERC721-setApprovalForAll}."
      },
      "symbol()": {
        "details": "See {IERC721Metadata-symbol}."
      },
      "tokenURI(uint256)": {
        "details": "See {IERC721Metadata-tokenURI}."
      },
      "transferFrom(address,address,uint256)": {
        "details": "See {IERC721-transferFrom}."
      }
    },
    "version": 1
  },
  "userdoc": {
    "kind": "user",
    "methods": {},
    "version": 1
  }
}